{
  "_format": "hh-sol-artifact-1",
  "contractName": "Game",
  "sourceName": "contracts/Game.sol",
  "abi": [
    {
      "inputs": [
        {
          "internalType": "string[]",
          "name": "characterNames",
          "type": "string[]"
        },
        {
          "internalType": "string[]",
          "name": "characterImageURIs",
          "type": "string[]"
        },
        {
          "internalType": "uint256[]",
          "name": "characterHp",
          "type": "uint256[]"
        },
        {
          "internalType": "uint256[]",
          "name": "characterAttackDmg",
          "type": "uint256[]"
        },
        {
          "internalType": "string",
          "name": "bossName",
          "type": "string"
        },
        {
          "internalType": "string",
          "name": "bossImageURI",
          "type": "string"
        },
        {
          "internalType": "uint256",
          "name": "bossHp",
          "type": "uint256"
        },
        {
          "internalType": "uint256",
          "name": "bossAttackDamage",
          "type": "uint256"
        }
      ],
      "stateMutability": "nonpayable",
      "type": "constructor"
    },
    {
      "anonymous": false,
      "inputs": [
        {
          "indexed": true,
          "internalType": "address",
          "name": "owner",
          "type": "address"
        },
        {
          "indexed": true,
          "internalType": "address",
          "name": "approved",
          "type": "address"
        },
        {
          "indexed": true,
          "internalType": "uint256",
          "name": "tokenId",
          "type": "uint256"
        }
      ],
      "name": "Approval",
      "type": "event"
    },
    {
      "anonymous": false,
      "inputs": [
        {
          "indexed": true,
          "internalType": "address",
          "name": "owner",
          "type": "address"
        },
        {
          "indexed": true,
          "internalType": "address",
          "name": "operator",
          "type": "address"
        },
        {
          "indexed": false,
          "internalType": "bool",
          "name": "approved",
          "type": "bool"
        }
      ],
      "name": "ApprovalForAll",
      "type": "event"
    },
    {
      "anonymous": false,
      "inputs": [
        {
          "indexed": false,
          "internalType": "address",
          "name": "sender",
          "type": "address"
        },
        {
          "indexed": false,
          "internalType": "uint256",
          "name": "newBossHp",
          "type": "uint256"
        },
        {
          "indexed": false,
          "internalType": "uint256",
          "name": "newPlayerHp",
          "type": "uint256"
        }
      ],
      "name": "AttackCompleted",
      "type": "event"
    },
    {
      "anonymous": false,
      "inputs": [
        {
          "indexed": false,
          "internalType": "address",
          "name": "sender",
          "type": "address"
        },
        {
          "indexed": false,
          "internalType": "uint256",
          "name": "tokenId",
          "type": "uint256"
        },
        {
          "indexed": false,
          "internalType": "uint256",
          "name": "characterIndex",
          "type": "uint256"
        }
      ],
      "name": "CharacterNFTMinted",
      "type": "event"
    },
    {
      "anonymous": false,
      "inputs": [
        {
          "indexed": true,
          "internalType": "address",
          "name": "from",
          "type": "address"
        },
        {
          "indexed": true,
          "internalType": "address",
          "name": "to",
          "type": "address"
        },
        {
          "indexed": true,
          "internalType": "uint256",
          "name": "tokenId",
          "type": "uint256"
        }
      ],
      "name": "Transfer",
      "type": "event"
    },
    {
      "inputs": [
        {
          "internalType": "address",
          "name": "to",
          "type": "address"
        },
        {
          "internalType": "uint256",
          "name": "tokenId",
          "type": "uint256"
        }
      ],
      "name": "approve",
      "outputs": [],
      "stateMutability": "nonpayable",
      "type": "function"
    },
    {
      "inputs": [],
      "name": "attackBoss",
      "outputs": [],
      "stateMutability": "nonpayable",
      "type": "function"
    },
    {
      "inputs": [
        {
          "internalType": "address",
          "name": "owner",
          "type": "address"
        }
      ],
      "name": "balanceOf",
      "outputs": [
        {
          "internalType": "uint256",
          "name": "",
          "type": "uint256"
        }
      ],
      "stateMutability": "view",
      "type": "function"
    },
    {
      "inputs": [],
      "name": "bigBoss",
      "outputs": [
        {
          "internalType": "string",
          "name": "name",
          "type": "string"
        },
        {
          "internalType": "string",
          "name": "imageURI",
          "type": "string"
        },
        {
          "internalType": "uint256",
          "name": "hp",
          "type": "uint256"
        },
        {
          "internalType": "uint256",
          "name": "maxHp",
          "type": "uint256"
        },
        {
          "internalType": "uint256",
          "name": "attackDamage",
          "type": "uint256"
        }
      ],
      "stateMutability": "view",
      "type": "function"
    },
    {
      "inputs": [],
      "name": "checkIfUserHasNFT",
      "outputs": [
        {
          "components": [
            {
              "internalType": "uint256",
              "name": "characterId",
              "type": "uint256"
            },
            {
              "internalType": "string",
              "name": "name",
              "type": "string"
            },
            {
              "internalType": "string",
              "name": "imageURI",
              "type": "string"
            },
            {
              "internalType": "uint256",
              "name": "hp",
              "type": "uint256"
            },
            {
              "internalType": "uint256",
              "name": "maxHp",
              "type": "uint256"
            },
            {
              "internalType": "uint256",
              "name": "attackDamage",
              "type": "uint256"
            }
          ],
          "internalType": "struct Game.CharacterAttributes",
          "name": "",
          "type": "tuple"
        }
      ],
      "stateMutability": "view",
      "type": "function"
    },
    {
      "inputs": [],
      "name": "getAllDefaultCharacters",
      "outputs": [
        {
          "components": [
            {
              "internalType": "uint256",
              "name": "characterId",
              "type": "uint256"
            },
            {
              "internalType": "string",
              "name": "name",
              "type": "string"
            },
            {
              "internalType": "string",
              "name": "imageURI",
              "type": "string"
            },
            {
              "internalType": "uint256",
              "name": "hp",
              "type": "uint256"
            },
            {
              "internalType": "uint256",
              "name": "maxHp",
              "type": "uint256"
            },
            {
              "internalType": "uint256",
              "name": "attackDamage",
              "type": "uint256"
            }
          ],
          "internalType": "struct Game.CharacterAttributes[]",
          "name": "",
          "type": "tuple[]"
        }
      ],
      "stateMutability": "view",
      "type": "function"
    },
    {
      "inputs": [
        {
          "internalType": "uint256",
          "name": "tokenId",
          "type": "uint256"
        }
      ],
      "name": "getApproved",
      "outputs": [
        {
          "internalType": "address",
          "name": "",
          "type": "address"
        }
      ],
      "stateMutability": "view",
      "type": "function"
    },
    {
      "inputs": [],
      "name": "getBoss",
      "outputs": [
        {
          "components": [
            {
              "internalType": "string",
              "name": "name",
              "type": "string"
            },
            {
              "internalType": "string",
              "name": "imageURI",
              "type": "string"
            },
            {
              "internalType": "uint256",
              "name": "hp",
              "type": "uint256"
            },
            {
              "internalType": "uint256",
              "name": "maxHp",
              "type": "uint256"
            },
            {
              "internalType": "uint256",
              "name": "attackDamage",
              "type": "uint256"
            }
          ],
          "internalType": "struct Game.BossAttributes",
          "name": "",
          "type": "tuple"
        }
      ],
      "stateMutability": "view",
      "type": "function"
    },
    {
      "inputs": [
        {
          "internalType": "address",
          "name": "owner",
          "type": "address"
        },
        {
          "internalType": "address",
          "name": "operator",
          "type": "address"
        }
      ],
      "name": "isApprovedForAll",
      "outputs": [
        {
          "internalType": "bool",
          "name": "",
          "type": "bool"
        }
      ],
      "stateMutability": "view",
      "type": "function"
    },
    {
      "inputs": [
        {
          "internalType": "uint256",
          "name": "_characterIndex",
          "type": "uint256"
        }
      ],
      "name": "mintCharacterNFT",
      "outputs": [],
      "stateMutability": "nonpayable",
      "type": "function"
    },
    {
      "inputs": [],
      "name": "name",
      "outputs": [
        {
          "internalType": "string",
          "name": "",
          "type": "string"
        }
      ],
      "stateMutability": "view",
      "type": "function"
    },
    {
      "inputs": [
        {
          "internalType": "uint256",
          "name": "",
          "type": "uint256"
        }
      ],
      "name": "nftHolderAttributes",
      "outputs": [
        {
          "internalType": "uint256",
          "name": "characterId",
          "type": "uint256"
        },
        {
          "internalType": "string",
          "name": "name",
          "type": "string"
        },
        {
          "internalType": "string",
          "name": "imageURI",
          "type": "string"
        },
        {
          "internalType": "uint256",
          "name": "hp",
          "type": "uint256"
        },
        {
          "internalType": "uint256",
          "name": "maxHp",
          "type": "uint256"
        },
        {
          "internalType": "uint256",
          "name": "attackDamage",
          "type": "uint256"
        }
      ],
      "stateMutability": "view",
      "type": "function"
    },
    {
      "inputs": [
        {
          "internalType": "address",
          "name": "",
          "type": "address"
        }
      ],
      "name": "nftHolders",
      "outputs": [
        {
          "internalType": "uint256",
          "name": "",
          "type": "uint256"
        }
      ],
      "stateMutability": "view",
      "type": "function"
    },
    {
      "inputs": [
        {
          "internalType": "uint256",
          "name": "tokenId",
          "type": "uint256"
        }
      ],
      "name": "ownerOf",
      "outputs": [
        {
          "internalType": "address",
          "name": "",
          "type": "address"
        }
      ],
      "stateMutability": "view",
      "type": "function"
    },
    {
      "inputs": [
        {
          "internalType": "address",
          "name": "from",
          "type": "address"
        },
        {
          "internalType": "address",
          "name": "to",
          "type": "address"
        },
        {
          "internalType": "uint256",
          "name": "tokenId",
          "type": "uint256"
        }
      ],
      "name": "safeTransferFrom",
      "outputs": [],
      "stateMutability": "nonpayable",
      "type": "function"
    },
    {
      "inputs": [
        {
          "internalType": "address",
          "name": "from",
          "type": "address"
        },
        {
          "internalType": "address",
          "name": "to",
          "type": "address"
        },
        {
          "internalType": "uint256",
          "name": "tokenId",
          "type": "uint256"
        },
        {
          "internalType": "bytes",
          "name": "data",
          "type": "bytes"
        }
      ],
      "name": "safeTransferFrom",
      "outputs": [],
      "stateMutability": "nonpayable",
      "type": "function"
    },
    {
      "inputs": [
        {
          "internalType": "address",
          "name": "operator",
          "type": "address"
        },
        {
          "internalType": "bool",
          "name": "approved",
          "type": "bool"
        }
      ],
      "name": "setApprovalForAll",
      "outputs": [],
      "stateMutability": "nonpayable",
      "type": "function"
    },
    {
      "inputs": [
        {
          "internalType": "bytes4",
          "name": "interfaceId",
          "type": "bytes4"
        }
      ],
      "name": "supportsInterface",
      "outputs": [
        {
          "internalType": "bool",
          "name": "",
          "type": "bool"
        }
      ],
      "stateMutability": "view",
      "type": "function"
    },
    {
      "inputs": [],
      "name": "symbol",
      "outputs": [
        {
          "internalType": "string",
          "name": "",
          "type": "string"
        }
      ],
      "stateMutability": "view",
      "type": "function"
    },
    {
      "inputs": [
        {
          "internalType": "uint256",
          "name": "_tokenId",
          "type": "uint256"
        }
      ],
      "name": "tokenURI",
      "outputs": [
        {
          "internalType": "string",
          "name": "",
          "type": "string"
        }
      ],
      "stateMutability": "view",
      "type": "function"
    },
    {
      "inputs": [
        {
          "internalType": "address",
          "name": "from",
          "type": "address"
        },
        {
          "internalType": "address",
          "name": "to",
          "type": "address"
        },
        {
          "internalType": "uint256",
          "name": "tokenId",
          "type": "uint256"
        }
      ],
      "name": "transferFrom",
      "outputs": [],
      "stateMutability": "nonpayable",
      "type": "function"
    }
  ],
  "bytecode": "0x60806040526000600f553480156200001657600080fd5b50604051620064d0380380620064d083398181016040528101906200003c919062000a8f565b6040518060400160405280600681526020017f4865726f657300000000000000000000000000000000000000000000000000008152506040518060400160405280600481526020017f4845524f000000000000000000000000000000000000000000000000000000008152508160009081620000b9919062000e53565b508060019081620000cb919062000e53565b5050506040518060a0016040528085815260200184815260200183815260200183815260200182815250600860008201518160000190816200010e919062000e53565b50602082015181600101908162000126919062000e53565b50604082015181600201556060820151816003015560808201518160040155905050620002a9604051806060016040528060268152602001620064aa6026913960086000018054620001789062000c4c565b80601f0160208091040260200160405190810160405280929190818152602001828054620001a69062000c4c565b8015620001f75780601f10620001cb57610100808354040283529160200191620001f7565b820191906000526020600020905b815481529060010190602001808311620001d957829003601f168201915b505050505060086002015460086001018054620002149062000c4c565b80601f0160208091040260200160405190810160405280929190818152602001828054620002429062000c4c565b8015620002935780601f10620002675761010080835404028352916020019162000293565b820191906000526020600020905b8154815290600101906020018083116200027557829003601f168201915b50505050506200060460201b620021e41760201c565b60005b8851811015620005de57600d6040518060c001604052808381526020018b8481518110620002df57620002de62000f3a565b5b602002602001015181526020018a848151811062000302576200030162000f3a565b5b6020026020010151815260200189848151811062000325576200032462000f3a565b5b6020026020010151815260200189848151811062000348576200034762000f3a565b5b602002602001015181526020018884815181106200036b576200036a62000f3a565b5b60200260200101518152509080600181540180825580915050600190039060005260206000209060060201600090919091909150600082015181600001556020820151816001019081620003c0919062000e53565b506040820151816002019081620003d8919062000e53565b50606082015181600301556080820151816004015560a0820151816005015550506000600d828154811062000412576200041162000f3a565b5b90600052602060002090600602016040518060c001604052908160008201548152602001600182018054620004479062000c4c565b80601f0160208091040260200160405190810160405280929190818152602001828054620004759062000c4c565b8015620004c65780601f106200049a57610100808354040283529160200191620004c6565b820191906000526020600020905b815481529060010190602001808311620004a857829003601f168201915b50505050508152602001600282018054620004e19062000c4c565b80601f01602080910402602001604051908101604052809291908181526020018280546200050f9062000c4c565b8015620005605780601f10620005345761010080835404028352916020019162000560565b820191906000526020600020905b8154815290600101906020018083116200054257829003601f168201915b5050505050815260200160038201548152602001600482015481526020016005820154815250509050620005c760405180606001604052806025815260200162006485602591398260200151836060015184604001516200060460201b620021e41760201c565b508080620005d59062000f98565b915050620002ac565b50620005f6600e620006b060201b620022861760201c565b5050505050505050620010aa565b620006aa8484848460405160240162000621949392919062001048565b6040516020818303038152906040527f5d1a971a000000000000000000000000000000000000000000000000000000007bffffffffffffffffffffffffffffffffffffffffffffffffffffffff19166020820180517bffffffffffffffffffffffffffffffffffffffffffffffffffffffff8381831617835250505050620006c660201b60201c565b50505050565b6001816000016000828254019250508190555050565b60008151905060006a636f6e736f6c652e6c6f679050602083016000808483855afa5050505050565b6000604051905090565b600080fd5b600080fd5b600080fd5b6000601f19601f8301169050919050565b7f4e487b7100000000000000000000000000000000000000000000000000000000600052604160045260246000fd5b620007538262000708565b810181811067ffffffffffffffff8211171562000775576200077462000719565b5b80604052505050565b60006200078a620006ef565b905062000798828262000748565b919050565b600067ffffffffffffffff821115620007bb57620007ba62000719565b5b602082029050602081019050919050565b600080fd5b600080fd5b600067ffffffffffffffff821115620007f457620007f362000719565b5b620007ff8262000708565b9050602081019050919050565b60005b838110156200082c5780820151818401526020810190506200080f565b60008484015250505050565b60006200084f6200084984620007d6565b6200077e565b9050828152602081018484840111156200086e576200086d620007d1565b5b6200087b8482856200080c565b509392505050565b600082601f8301126200089b576200089a62000703565b5b8151620008ad84826020860162000838565b91505092915050565b6000620008cd620008c7846200079d565b6200077e565b90508083825260208201905060208402830185811115620008f357620008f2620007cc565b5b835b818110156200094157805167ffffffffffffffff8111156200091c576200091b62000703565b5b8086016200092b898262000883565b85526020850194505050602081019050620008f5565b5050509392505050565b600082601f83011262000963576200096262000703565b5b815162000975848260208601620008b6565b91505092915050565b600067ffffffffffffffff8211156200099c576200099b62000719565b5b602082029050602081019050919050565b6000819050919050565b620009c281620009ad565b8114620009ce57600080fd5b50565b600081519050620009e281620009b7565b92915050565b6000620009ff620009f9846200097e565b6200077e565b9050808382526020820190506020840283018581111562000a255762000a24620007cc565b5b835b8181101562000a52578062000a3d8882620009d1565b84526020840193505060208101905062000a27565b5050509392505050565b600082601f83011262000a745762000a7362000703565b5b815162000a86848260208601620009e8565b91505092915050565b600080600080600080600080610100898b03121562000ab35762000ab2620006f9565b5b600089015167ffffffffffffffff81111562000ad45762000ad3620006fe565b5b62000ae28b828c016200094b565b985050602089015167ffffffffffffffff81111562000b065762000b05620006fe565b5b62000b148b828c016200094b565b975050604089015167ffffffffffffffff81111562000b385762000b37620006fe565b5b62000b468b828c0162000a5c565b965050606089015167ffffffffffffffff81111562000b6a5762000b69620006fe565b5b62000b788b828c0162000a5c565b955050608089015167ffffffffffffffff81111562000b9c5762000b9b620006fe565b5b62000baa8b828c0162000883565b94505060a089015167ffffffffffffffff81111562000bce5762000bcd620006fe565b5b62000bdc8b828c0162000883565b93505060c062000bef8b828c01620009d1565b92505060e062000c028b828c01620009d1565b9150509295985092959890939650565b600081519050919050565b7f4e487b7100000000000000000000000000000000000000000000000000000000600052602260045260246000fd5b6000600282049050600182168062000c6557607f821691505b60208210810362000c7b5762000c7a62000c1d565b5b50919050565b60008190508160005260206000209050919050565b60006020601f8301049050919050565b600082821b905092915050565b60006008830262000ce57fffffffffffffffffffffffffffffffffffffffffffffffffffffffffffffffff8262000ca6565b62000cf1868362000ca6565b95508019841693508086168417925050509392505050565b6000819050919050565b600062000d3462000d2e62000d2884620009ad565b62000d09565b620009ad565b9050919050565b6000819050919050565b62000d508362000d13565b62000d6862000d5f8262000d3b565b84845462000cb3565b825550505050565b600090565b62000d7f62000d70565b62000d8c81848462000d45565b505050565b5b8181101562000db45762000da860008262000d75565b60018101905062000d92565b5050565b601f82111562000e035762000dcd8162000c81565b62000dd88462000c96565b8101602085101562000de8578190505b62000e0062000df78562000c96565b83018262000d91565b50505b505050565b600082821c905092915050565b600062000e286000198460080262000e08565b1980831691505092915050565b600062000e43838362000e15565b9150826002028217905092915050565b62000e5e8262000c12565b67ffffffffffffffff81111562000e7a5762000e7962000719565b5b62000e86825462000c4c565b62000e9382828562000db8565b600060209050601f83116001811462000ecb576000841562000eb6578287015190505b62000ec2858262000e35565b86555062000f32565b601f19841662000edb8662000c81565b60005b8281101562000f055784890151825560018201915060208501945060208101905062000ede565b8683101562000f25578489015162000f21601f89168262000e15565b8355505b6001600288020188555050505b505050505050565b7f4e487b7100000000000000000000000000000000000000000000000000000000600052603260045260246000fd5b7f4e487b7100000000000000000000000000000000000000000000000000000000600052601160045260246000fd5b600062000fa582620009ad565b91507fffffffffffffffffffffffffffffffffffffffffffffffffffffffffffffffff820362000fda5762000fd962000f69565b5b600182019050919050565b600082825260208201905092915050565b6000620010038262000c12565b6200100f818562000fe5565b9350620010218185602086016200080c565b6200102c8162000708565b840191505092915050565b6200104281620009ad565b82525050565b6000608082019050818103600083015262001064818762000ff6565b905081810360208301526200107a818662000ff6565b90506200108b604083018562001037565b81810360608301526200109f818462000ff6565b905095945050505050565b6153cb80620010ba6000396000f3fe608060405234801561001057600080fd5b50600436106101375760003560e01c806398da4c95116100b8578063c76d9e7d1161007c578063c76d9e7d14610369578063c87b56dd14610387578063c8cf27f4146103b7578063d4f24c5b146103d5578063e985e9c5146103df578063f8b81ef71461040f57610137565b806398da4c95146102bc578063a22cb465146102f1578063a9c326791461030d578063b88d4fde1461032f578063b953084e1461034b57610137565b806342842e0e116100ff57806342842e0e146101f25780636352211e1461020e57806370a082311461023e5780637df124a11461026e57806395d89b411461029e57610137565b806301ffc9a71461013c57806306fdde031461016c578063081812fc1461018a578063095ea7b3146101ba57806323b872dd146101d6575b600080fd5b61015660048036038101906101519190613786565b61042b565b60405161016391906137ce565b60405180910390f35b61017461050d565b6040516101819190613879565b60405180910390f35b6101a4600480360381019061019f91906138d1565b61059f565b6040516101b1919061393f565b60405180910390f35b6101d460048036038101906101cf9190613986565b6105e5565b005b6101f060048036038101906101eb91906139c6565b6106fc565b005b61020c600480360381019061020791906139c6565b61075c565b005b610228600480360381019061022391906138d1565b61077c565b604051610235919061393f565b60405180910390f35b61025860048036038101906102539190613a19565b610802565b6040516102659190613a55565b60405180910390f35b61028860048036038101906102839190613a19565b6108b9565b6040516102959190613a55565b60405180910390f35b6102a66108d1565b6040516102b39190613879565b60405180910390f35b6102d660048036038101906102d191906138d1565b610963565b6040516102e896959493929190613a70565b60405180910390f35b61030b60048036038101906103069190613b0b565b610aaf565b005b610315610ac5565b604051610326959493929190613b4b565b60405180910390f35b61034960048036038101906103449190613ce1565b610bf9565b005b610353610c5b565b6040516103609190613f0f565b60405180910390f35b610371610e06565b60405161037e9190613fae565b60405180910390f35b6103a1600480360381019061039c91906138d1565b610f62565b6040516103ae9190613879565b60405180910390f35b6103bf61117d565b6040516103cc9190614060565b60405180910390f35b6103dd611355565b005b6103f960048036038101906103f49190614082565b611e28565b60405161040691906137ce565b60405180910390f35b610429600480360381019061042491906138d1565b611ebc565b005b60007f80ac58cd000000000000000000000000000000000000000000000000000000007bffffffffffffffffffffffffffffffffffffffffffffffffffffffff1916827bffffffffffffffffffffffffffffffffffffffffffffffffffffffff191614806104f657507f5b5e139f000000000000000000000000000000000000000000000000000000007bffffffffffffffffffffffffffffffffffffffffffffffffffffffff1916827bffffffffffffffffffffffffffffffffffffffffffffffffffffffff1916145b8061050657506105058261229c565b5b9050919050565b60606000805461051c906140f1565b80601f0160208091040260200160405190810160405280929190818152602001828054610548906140f1565b80156105955780601f1061056a57610100808354040283529160200191610595565b820191906000526020600020905b81548152906001019060200180831161057857829003601f168201915b5050505050905090565b60006105aa82612306565b6004600083815260200190815260200160002060009054906101000a900473ffffffffffffffffffffffffffffffffffffffff169050919050565b60006105f08261077c565b90508073ffffffffffffffffffffffffffffffffffffffff168373ffffffffffffffffffffffffffffffffffffffff1603610660576040517f08c379a000000000000000000000000000000000000000000000000000000000815260040161065790614194565b60405180910390fd5b8073ffffffffffffffffffffffffffffffffffffffff1661067f612351565b73ffffffffffffffffffffffffffffffffffffffff1614806106ae57506106ad816106a8612351565b611e28565b5b6106ed576040517f08c379a00000000000000000000000000000000000000000000000000000000081526004016106e490614226565b60405180910390fd5b6106f78383612359565b505050565b61070d610707612351565b82612412565b61074c576040517f08c379a0000000000000000000000000000000000000000000000000000000008152600401610743906142b8565b60405180910390fd5b6107578383836124a7565b505050565b61077783838360405180602001604052806000815250610bf9565b505050565b600080610788836127a0565b9050600073ffffffffffffffffffffffffffffffffffffffff168173ffffffffffffffffffffffffffffffffffffffff16036107f9576040517f08c379a00000000000000000000000000000000000000000000000000000000081526004016107f090614324565b60405180910390fd5b80915050919050565b60008073ffffffffffffffffffffffffffffffffffffffff168273ffffffffffffffffffffffffffffffffffffffff1603610872576040517f08c379a0000000000000000000000000000000000000000000000000000000008152600401610869906143b6565b60405180910390fd5b600360008373ffffffffffffffffffffffffffffffffffffffff1673ffffffffffffffffffffffffffffffffffffffff168152602001908152602001600020549050919050565b60076020528060005260406000206000915090505481565b6060600180546108e0906140f1565b80601f016020809104026020016040519081016040528092919081815260200182805461090c906140f1565b80156109595780601f1061092e57610100808354040283529160200191610959565b820191906000526020600020905b81548152906001019060200180831161093c57829003601f168201915b5050505050905090565b600660205280600052604060002060009150905080600001549080600101805461098c906140f1565b80601f01602080910402602001604051908101604052809291908181526020018280546109b8906140f1565b8015610a055780601f106109da57610100808354040283529160200191610a05565b820191906000526020600020905b8154815290600101906020018083116109e857829003601f168201915b505050505090806002018054610a1a906140f1565b80601f0160208091040260200160405190810160405280929190818152602001828054610a46906140f1565b8015610a935780601f10610a6857610100808354040283529160200191610a93565b820191906000526020600020905b815481529060010190602001808311610a7657829003601f168201915b5050505050908060030154908060040154908060050154905086565b610ac1610aba612351565b83836127dd565b5050565b6008806000018054610ad6906140f1565b80601f0160208091040260200160405190810160405280929190818152602001828054610b02906140f1565b8015610b4f5780601f10610b2457610100808354040283529160200191610b4f565b820191906000526020600020905b815481529060010190602001808311610b3257829003601f168201915b505050505090806001018054610b64906140f1565b80601f0160208091040260200160405190810160405280929190818152602001828054610b90906140f1565b8015610bdd5780601f10610bb257610100808354040283529160200191610bdd565b820191906000526020600020905b815481529060010190602001808311610bc057829003601f168201915b5050505050908060020154908060030154908060040154905085565b610c0a610c04612351565b83612412565b610c49576040517f08c379a0000000000000000000000000000000000000000000000000000000008152600401610c40906142b8565b60405180910390fd5b610c5584848484612949565b50505050565b6060600d805480602002602001604051908101604052809291908181526020016000905b82821015610dfd57838290600052602060002090600602016040518060c001604052908160008201548152602001600182018054610cbc906140f1565b80601f0160208091040260200160405190810160405280929190818152602001828054610ce8906140f1565b8015610d355780601f10610d0a57610100808354040283529160200191610d35565b820191906000526020600020905b815481529060010190602001808311610d1857829003601f168201915b50505050508152602001600282018054610d4e906140f1565b80601f0160208091040260200160405190810160405280929190818152602001828054610d7a906140f1565b8015610dc75780601f10610d9c57610100808354040283529160200191610dc7565b820191906000526020600020905b815481529060010190602001808311610daa57829003601f168201915b50505050508152602001600382015481526020016004820154815260200160058201548152505081526020019060010190610c7f565b50505050905090565b610e0e6136b5565b60086040518060a0016040529081600082018054610e2b906140f1565b80601f0160208091040260200160405190810160405280929190818152602001828054610e57906140f1565b8015610ea45780601f10610e7957610100808354040283529160200191610ea4565b820191906000526020600020905b815481529060010190602001808311610e8757829003601f168201915b50505050508152602001600182018054610ebd906140f1565b80601f0160208091040260200160405190810160405280929190818152602001828054610ee9906140f1565b8015610f365780601f10610f0b57610100808354040283529160200191610f36565b820191906000526020600020905b815481529060010190602001808311610f1957829003601f168201915b505050505081526020016002820154815260200160038201548152602001600482015481525050905090565b60606000600660008481526020019081526020016000206040518060c001604052908160008201548152602001600182018054610f9e906140f1565b80601f0160208091040260200160405190810160405280929190818152602001828054610fca906140f1565b80156110175780601f10610fec57610100808354040283529160200191611017565b820191906000526020600020905b815481529060010190602001808311610ffa57829003601f168201915b50505050508152602001600282018054611030906140f1565b80601f016020809104026020016040519081016040528092919081815260200182805461105c906140f1565b80156110a95780601f1061107e576101008083540402835291602001916110a9565b820191906000526020600020905b81548152906001019060200180831161108c57829003601f168201915b505050505081526020016003820154815260200160048201548152602001600582015481525050905060006110e182606001516129a5565b905060006110f283608001516129a5565b905060006111038460a001516129a5565b905060006111498560200151611118896129a5565b8760400151878787604051602001611135969594939291906146e4565b604051602081830303815290604052612a73565b905060008160405160200161115e91906147d5565b6040516020818303038152906040529050809650505050505050919050565b6111856136e4565b6000600760003373ffffffffffffffffffffffffffffffffffffffff1673ffffffffffffffffffffffffffffffffffffffff168152602001908152602001600020549050600081111561134457600660008281526020019081526020016000206040518060c00160405290816000820154815260200160018201805461120a906140f1565b80601f0160208091040260200160405190810160405280929190818152602001828054611236906140f1565b80156112835780601f1061125857610100808354040283529160200191611283565b820191906000526020600020905b81548152906001019060200180831161126657829003601f168201915b5050505050815260200160028201805461129c906140f1565b80601f01602080910402602001604051908101604052809291908181526020018280546112c8906140f1565b80156113155780601f106112ea57610100808354040283529160200191611315565b820191906000526020600020905b8154815290600101906020018083116112f857829003601f168201915b505050505081526020016003820154815260200160048201548152602001600582015481525050915050611352565b61134c6136e4565b80925050505b90565b6000600760003373ffffffffffffffffffffffffffffffffffffffff1673ffffffffffffffffffffffffffffffffffffffff168152602001908152602001600020549050600060066000838152602001908152602001600020905061146860405180608001604052806052815260200161528d605291398260010180546113db906140f1565b80601f0160208091040260200160405190810160405280929190818152602001828054611407906140f1565b80156114545780601f1061142957610100808354040283529160200191611454565b820191906000526020600020905b81548152906001019060200180831161143757829003601f168201915b505050505083600301548460050154612c0a565b6115236040518060600160405280602881526020016153406028913960086000018054611494906140f1565b80601f01602080910402602001604051908101604052809291908181526020018280546114c0906140f1565b801561150d5780601f106114e25761010080835404028352916020019161150d565b820191906000526020600020905b8154815290600101906020018083116114f057829003601f168201915b5050505050600860020154600860040154612c0a565b600081600301541161153457600080fd5b60006008600201541161154657600080fd5b61169f6040518060400160405280601081526020017f2573207377696e6773206174202573210000000000000000000000000000000081525082600101805461158e906140f1565b80601f01602080910402602001604051908101604052809291908181526020018280546115ba906140f1565b80156116075780601f106115dc57610100808354040283529160200191611607565b820191906000526020600020905b8154815290600101906020018083116115ea57829003601f168201915b50505050506008600001805461161c906140f1565b80601f0160208091040260200160405190810160405280929190818152602001828054611648906140f1565b80156116955780601f1061166a57610100808354040283529160200191611695565b820191906000526020600020905b81548152906001019060200180831161167857829003601f168201915b5050505050612cac565b60056116ab600a612d4b565b11156119f25761180a6040518060400160405280600a81526020017f25732068697420257321000000000000000000000000000000000000000000008152508260010180546116f9906140f1565b80601f0160208091040260200160405190810160405280929190818152602001828054611725906140f1565b80156117725780601f1061174757610100808354040283529160200191611772565b820191906000526020600020905b81548152906001019060200180831161175557829003601f168201915b505050505060086000018054611787906140f1565b80601f01602080910402602001604051908101604052809291908181526020018280546117b3906140f1565b80156118005780601f106117d557610100808354040283529160200191611800565b820191906000526020600020905b8154815290600101906020018083116117e357829003601f168201915b5050505050612cac565b8060050154600860020154101561182b57600060086002018190555061191b565b80600501546008600201546118409190614826565b60086002018190555061191a6040518060400160405280601281526020017f257320746f6f6b2025732064616d61676521000000000000000000000000000081525060086000018054611892906140f1565b80601f01602080910402602001604051908101604052809291908181526020018280546118be906140f1565b801561190b5780601f106118e05761010080835404028352916020019161190b565b820191906000526020600020905b8154815290600101906020018083116118ee57829003601f168201915b50505050508360050154612da7565b5b6119ed6040518060400160405280602081526020017f426f7373202573206e6f77206861732025732048502072656d61696e696e672181525060086000018054611964906140f1565b80601f0160208091040260200160405190810160405280929190818152602001828054611990906140f1565b80156119dd5780601f106119b2576101008083540402835291602001916119dd565b820191906000526020600020905b8154815290600101906020018083116119c057829003601f168201915b5050505050600860020154612da7565b611a31565b611a306040518060400160405280601381526020017f596f75722061747461636b206d69737365642100000000000000000000000000815250612e46565b5b611b8a6040518060400160405280601481526020017f426f73732025732061747461636b65642025732100000000000000000000000081525060086000018054611a7a906140f1565b80601f0160208091040260200160405190810160405280929190818152602001828054611aa6906140f1565b8015611af35780601f10611ac857610100808354040283529160200191611af3565b820191906000526020600020905b815481529060010190602001808311611ad657829003601f168201915b5050505050836001018054611b07906140f1565b80601f0160208091040260200160405190810160405280929190818152602001828054611b33906140f1565b8015611b805780601f10611b5557610100808354040283529160200191611b80565b820191906000526020600020905b815481529060010190602001808311611b6357829003601f168201915b5050505050612cac565b6005611b96600a612d4b565b1115611da15760086004015481600301541015611bdd5760008160030181905550611bd86040518060600160405280602181526020016152df60219139612e46565b611ccc565b6008600401548160030154611bf29190614826565b8160030181905550611ccb6040518060400160405280601f81526020017f596f7520746f6f6b2061206869742120746f6f6b2025732064616d616765210081525060086000018054611c43906140f1565b80601f0160208091040260200160405190810160405280929190818152602001828054611c6f906140f1565b8015611cbc5780601f10611c9157610100808354040283529160200191611cbc565b820191906000526020600020905b815481529060010190602001808311611c9f57829003601f168201915b50505050508360050154612da7565b5b611d9c6040518060400160405280601781526020017f2573206861732025732048502072656d61696e696e6721000000000000000000815250826001018054611d14906140f1565b80601f0160208091040260200160405190810160405280929190818152602001828054611d40906140f1565b8015611d8d5780601f10611d6257610100808354040283529160200191611d8d565b820191906000526020600020905b815481529060010190602001808311611d7057829003601f168201915b50505050508360030154612da7565b611de0565b611ddf6040518060400160405280601981526020017f54686520626f737327732061747461636b206d69737365642100000000000000815250612e46565b5b7ff82b33fe992b8a1b426ea1bfcf4c1c862da94c52a1bf89191e64685c92af65e7336008600201548360030154604051611e1c9392919061485a565b60405180910390a15050565b6000600560008473ffffffffffffffffffffffffffffffffffffffff1673ffffffffffffffffffffffffffffffffffffffff16815260200190815260200160002060008373ffffffffffffffffffffffffffffffffffffffff1673ffffffffffffffffffffffffffffffffffffffff16815260200190815260200160002060009054906101000a900460ff16905092915050565b6000611ec8600e612edf565b9050611ed43382612eed565b6040518060c00160405280838152602001600d8481548110611ef957611ef8614891565b5b90600052602060002090600602016001018054611f15906140f1565b80601f0160208091040260200160405190810160405280929190818152602001828054611f41906140f1565b8015611f8e5780601f10611f6357610100808354040283529160200191611f8e565b820191906000526020600020905b815481529060010190602001808311611f7157829003601f168201915b50505050508152602001600d8481548110611fac57611fab614891565b5b90600052602060002090600602016002018054611fc8906140f1565b80601f0160208091040260200160405190810160405280929190818152602001828054611ff4906140f1565b80156120415780601f1061201657610100808354040283529160200191612041565b820191906000526020600020905b81548152906001019060200180831161202457829003601f168201915b50505050508152602001600d848154811061205f5761205e614891565b5b9060005260206000209060060201600301548152602001600d848154811061208a57612089614891565b5b9060005260206000209060060201600401548152602001600d84815481106120b5576120b4614891565b5b906000526020600020906006020160050154815250600660008381526020019081526020016000206000820151816000015560208201518160010190816120fc9190614a6c565b5060408201518160020190816121129190614a6c565b50606082015181600301556080820151816004015560a082015181600501559050506121576040518060600160405280602e8152602001615368602e91398284612f0b565b80600760003373ffffffffffffffffffffffffffffffffffffffff1673ffffffffffffffffffffffffffffffffffffffff168152602001908152602001600020819055507f4bc303fd457a97b4691b9af582ce71868a3d258638c8d4f8c60988a0f0bfb8cd3382846040516121ce9392919061485a565b60405180910390a16121e0600e612286565b5050565b612280848484846040516024016121fe9493929190614b3e565b6040516020818303038152906040527f5d1a971a000000000000000000000000000000000000000000000000000000007bffffffffffffffffffffffffffffffffffffffffffffffffffffffff19166020820180517bffffffffffffffffffffffffffffffffffffffffffffffffffffffff8381831617835250505050612faa565b50505050565b6001816000016000828254019250508190555050565b60007f01ffc9a7000000000000000000000000000000000000000000000000000000007bffffffffffffffffffffffffffffffffffffffffffffffffffffffff1916827bffffffffffffffffffffffffffffffffffffffffffffffffffffffff1916149050919050565b61230f81612fd3565b61234e576040517f08c379a000000000000000000000000000000000000000000000000000000000815260040161234590614324565b60405180910390fd5b50565b600033905090565b816004600083815260200190815260200160002060006101000a81548173ffffffffffffffffffffffffffffffffffffffff021916908373ffffffffffffffffffffffffffffffffffffffff160217905550808273ffffffffffffffffffffffffffffffffffffffff166123cc8361077c565b73ffffffffffffffffffffffffffffffffffffffff167f8c5be1e5ebec7d5bd14f71427d1e84f3dd0314c0f7b2291e5b200ac8c7c3b92560405160405180910390a45050565b60008061241e8361077c565b90508073ffffffffffffffffffffffffffffffffffffffff168473ffffffffffffffffffffffffffffffffffffffff161480612460575061245f8185611e28565b5b8061249e57508373ffffffffffffffffffffffffffffffffffffffff166124868461059f565b73ffffffffffffffffffffffffffffffffffffffff16145b91505092915050565b8273ffffffffffffffffffffffffffffffffffffffff166124c78261077c565b73ffffffffffffffffffffffffffffffffffffffff161461251d576040517f08c379a000000000000000000000000000000000000000000000000000000000815260040161251490614c0a565b60405180910390fd5b600073ffffffffffffffffffffffffffffffffffffffff168273ffffffffffffffffffffffffffffffffffffffff160361258c576040517f08c379a000000000000000000000000000000000000000000000000000000000815260040161258390614c9c565b60405180910390fd5b6125998383836001613014565b8273ffffffffffffffffffffffffffffffffffffffff166125b98261077c565b73ffffffffffffffffffffffffffffffffffffffff161461260f576040517f08c379a000000000000000000000000000000000000000000000000000000000815260040161260690614c0a565b60405180910390fd5b6004600082815260200190815260200160002060006101000a81549073ffffffffffffffffffffffffffffffffffffffff02191690556001600360008573ffffffffffffffffffffffffffffffffffffffff1673ffffffffffffffffffffffffffffffffffffffff168152602001908152602001600020600082825403925050819055506001600360008473ffffffffffffffffffffffffffffffffffffffff1673ffffffffffffffffffffffffffffffffffffffff16815260200190815260200160002060008282540192505081905550816002600083815260200190815260200160002060006101000a81548173ffffffffffffffffffffffffffffffffffffffff021916908373ffffffffffffffffffffffffffffffffffffffff160217905550808273ffffffffffffffffffffffffffffffffffffffff168473ffffffffffffffffffffffffffffffffffffffff167fddf252ad1be2c89b69c2b068fc378daa952ba7f163c4a11628f55a4df523b3ef60405160405180910390a461279b838383600161313a565b505050565b60006002600083815260200190815260200160002060009054906101000a900473ffffffffffffffffffffffffffffffffffffffff169050919050565b8173ffffffffffffffffffffffffffffffffffffffff168373ffffffffffffffffffffffffffffffffffffffff160361284b576040517f08c379a000000000000000000000000000000000000000000000000000000000815260040161284290614d08565b60405180910390fd5b80600560008573ffffffffffffffffffffffffffffffffffffffff1673ffffffffffffffffffffffffffffffffffffffff16815260200190815260200160002060008473ffffffffffffffffffffffffffffffffffffffff1673ffffffffffffffffffffffffffffffffffffffff16815260200190815260200160002060006101000a81548160ff0219169083151502179055508173ffffffffffffffffffffffffffffffffffffffff168373ffffffffffffffffffffffffffffffffffffffff167f17307eab39ab6107e8899845ad3d59bd9653f200f220920489ca2b5937696c318360405161293c91906137ce565b60405180910390a3505050565b6129548484846124a7565b61296084848484613140565b61299f576040517f08c379a000000000000000000000000000000000000000000000000000000000815260040161299690614d9a565b60405180910390fd5b50505050565b6060600060016129b4846132c7565b01905060008167ffffffffffffffff8111156129d3576129d2613bb6565b5b6040519080825280601f01601f191660200182016040528015612a055781602001600182028036833780820191505090505b509050600082602001820190505b600115612a68578080600190039150507f3031323334353637383961626364656600000000000000000000000000000000600a86061a8153600a8581612a5c57612a5b614dba565b5b04945060008503612a13575b819350505050919050565b606060008251905060008103612a9b5760405180602001604052806000815250915050612c05565b60006003600283612aac9190614de9565b612ab69190614e1d565b6004612ac29190614e4e565b90506000602082612ad39190614de9565b67ffffffffffffffff811115612aec57612aeb613bb6565b5b6040519080825280601f01601f191660200182016040528015612b1e5781602001600182028036833780820191505090505b5090506000604051806060016040528060408152602001615300604091399050600181016020830160005b86811015612bc25760038101905062ffffff818a015116603f8160121c168401518060081b905060ff603f83600c1c1686015116810190508060081b905060ff603f8360061c1686015116810190508060081b905060ff603f831686015116810190508060e01b90508084526004840193505050612b49565b506003860660018114612bdc5760028114612bec57612bf7565b613d3d60f01b6002830352612bf7565b603d60f81b60018303525b508484525050819450505050505b919050565b612ca684848484604051602401612c249493929190614e90565b6040516020818303038152906040527ff45d7d2c000000000000000000000000000000000000000000000000000000007bffffffffffffffffffffffffffffffffffffffffffffffffffffffff19166020820180517bffffffffffffffffffffffffffffffffffffffffffffffffffffffff8381831617835250505050612faa565b50505050565b612d46838383604051602401612cc493929190614ee3565b6040516020818303038152906040527f2ced7cef000000000000000000000000000000000000000000000000000000007bffffffffffffffffffffffffffffffffffffffffffffffffffffffff19166020820180517bffffffffffffffffffffffffffffffffffffffffffffffffffffffff8381831617835250505050612faa565b505050565b6000600f6000815480929190612d6090614f2f565b9190505550814233600f54604051602001612d7d93929190614fe0565b6040516020818303038152906040528051906020012060001c612da0919061501d565b9050919050565b612e41838383604051602401612dbf9392919061504e565b6040516020818303038152906040527f5821efa1000000000000000000000000000000000000000000000000000000007bffffffffffffffffffffffffffffffffffffffffffffffffffffffff19166020820180517bffffffffffffffffffffffffffffffffffffffffffffffffffffffff8381831617835250505050612faa565b505050565b612edc81604051602401612e5a9190613879565b6040516020818303038152906040527f41304fac000000000000000000000000000000000000000000000000000000007bffffffffffffffffffffffffffffffffffffffffffffffffffffffff19166020820180517bffffffffffffffffffffffffffffffffffffffffffffffffffffffff8381831617835250505050612faa565b50565b600081600001549050919050565b612f0782826040518060200160405280600081525061341a565b5050565b612fa5838383604051602401612f2393929190615093565b6040516020818303038152906040527fca47c4eb000000000000000000000000000000000000000000000000000000007bffffffffffffffffffffffffffffffffffffffffffffffffffffffff19166020820180517bffffffffffffffffffffffffffffffffffffffffffffffffffffffff8381831617835250505050612faa565b505050565b60008151905060006a636f6e736f6c652e6c6f679050602083016000808483855afa5050505050565b60008073ffffffffffffffffffffffffffffffffffffffff16612ff5836127a0565b73ffffffffffffffffffffffffffffffffffffffff1614159050919050565b600181111561313457600073ffffffffffffffffffffffffffffffffffffffff168473ffffffffffffffffffffffffffffffffffffffff16146130a85780600360008673ffffffffffffffffffffffffffffffffffffffff1673ffffffffffffffffffffffffffffffffffffffff16815260200190815260200160002060008282546130a09190614826565b925050819055505b600073ffffffffffffffffffffffffffffffffffffffff168373ffffffffffffffffffffffffffffffffffffffff16146131335780600360008573ffffffffffffffffffffffffffffffffffffffff1673ffffffffffffffffffffffffffffffffffffffff168152602001908152602001600020600082825461312b9190614de9565b925050819055505b5b50505050565b50505050565b60006131618473ffffffffffffffffffffffffffffffffffffffff16613475565b156132ba578373ffffffffffffffffffffffffffffffffffffffff1663150b7a0261318a612351565b8786866040518563ffffffff1660e01b81526004016131ac9493929190615126565b6020604051808303816000875af19250505080156131e857506040513d601f19601f820116820180604052508101906131e59190615187565b60015b61326a573d8060008114613218576040519150601f19603f3d011682016040523d82523d6000602084013e61321d565b606091505b506000815103613262576040517f08c379a000000000000000000000000000000000000000000000000000000000815260040161325990614d9a565b60405180910390fd5b805181602001fd5b63150b7a0260e01b7bffffffffffffffffffffffffffffffffffffffffffffffffffffffff1916817bffffffffffffffffffffffffffffffffffffffffffffffffffffffff1916149150506132bf565b600190505b949350505050565b600080600090507a184f03e93ff9f4daa797ed6e38ed64bf6a1f0100000000000000008310613325577a184f03e93ff9f4daa797ed6e38ed64bf6a1f010000000000000000838161331b5761331a614dba565b5b0492506040810190505b6d04ee2d6d415b85acef81000000008310613362576d04ee2d6d415b85acef8100000000838161335857613357614dba565b5b0492506020810190505b662386f26fc10000831061339157662386f26fc10000838161338757613386614dba565b5b0492506010810190505b6305f5e10083106133ba576305f5e10083816133b0576133af614dba565b5b0492506008810190505b61271083106133df5761271083816133d5576133d4614dba565b5b0492506004810190505b6064831061340257606483816133f8576133f7614dba565b5b0492506002810190505b600a8310613411576001810190505b80915050919050565b6134248383613498565b6134316000848484613140565b613470576040517f08c379a000000000000000000000000000000000000000000000000000000000815260040161346790614d9a565b60405180910390fd5b505050565b6000808273ffffffffffffffffffffffffffffffffffffffff163b119050919050565b600073ffffffffffffffffffffffffffffffffffffffff168273ffffffffffffffffffffffffffffffffffffffff1603613507576040517f08c379a00000000000000000000000000000000000000000000000000000000081526004016134fe90615200565b60405180910390fd5b61351081612fd3565b15613550576040517f08c379a00000000000000000000000000000000000000000000000000000000081526004016135479061526c565b60405180910390fd5b61355e600083836001613014565b61356781612fd3565b156135a7576040517f08c379a000000000000000000000000000000000000000000000000000000000815260040161359e9061526c565b60405180910390fd5b6001600360008473ffffffffffffffffffffffffffffffffffffffff1673ffffffffffffffffffffffffffffffffffffffff16815260200190815260200160002060008282540192505081905550816002600083815260200190815260200160002060006101000a81548173ffffffffffffffffffffffffffffffffffffffff021916908373ffffffffffffffffffffffffffffffffffffffff160217905550808273ffffffffffffffffffffffffffffffffffffffff16600073ffffffffffffffffffffffffffffffffffffffff167fddf252ad1be2c89b69c2b068fc378daa952ba7f163c4a11628f55a4df523b3ef60405160405180910390a46136b160008383600161313a565b5050565b6040518060a0016040528060608152602001606081526020016000815260200160008152602001600081525090565b6040518060c001604052806000815260200160608152602001606081526020016000815260200160008152602001600081525090565b6000604051905090565b600080fd5b600080fd5b60007fffffffff0000000000000000000000000000000000000000000000000000000082169050919050565b6137638161372e565b811461376e57600080fd5b50565b6000813590506137808161375a565b92915050565b60006020828403121561379c5761379b613724565b5b60006137aa84828501613771565b91505092915050565b60008115159050919050565b6137c8816137b3565b82525050565b60006020820190506137e360008301846137bf565b92915050565b600081519050919050565b600082825260208201905092915050565b60005b83811015613823578082015181840152602081019050613808565b60008484015250505050565b6000601f19601f8301169050919050565b600061384b826137e9565b61385581856137f4565b9350613865818560208601613805565b61386e8161382f565b840191505092915050565b600060208201905081810360008301526138938184613840565b905092915050565b6000819050919050565b6138ae8161389b565b81146138b957600080fd5b50565b6000813590506138cb816138a5565b92915050565b6000602082840312156138e7576138e6613724565b5b60006138f5848285016138bc565b91505092915050565b600073ffffffffffffffffffffffffffffffffffffffff82169050919050565b6000613929826138fe565b9050919050565b6139398161391e565b82525050565b60006020820190506139546000830184613930565b92915050565b6139638161391e565b811461396e57600080fd5b50565b6000813590506139808161395a565b92915050565b6000806040838503121561399d5761399c613724565b5b60006139ab85828601613971565b92505060206139bc858286016138bc565b9150509250929050565b6000806000606084860312156139df576139de613724565b5b60006139ed86828701613971565b93505060206139fe86828701613971565b9250506040613a0f868287016138bc565b9150509250925092565b600060208284031215613a2f57613a2e613724565b5b6000613a3d84828501613971565b91505092915050565b613a4f8161389b565b82525050565b6000602082019050613a6a6000830184613a46565b92915050565b600060c082019050613a856000830189613a46565b8181036020830152613a978188613840565b90508181036040830152613aab8187613840565b9050613aba6060830186613a46565b613ac76080830185613a46565b613ad460a0830184613a46565b979650505050505050565b613ae8816137b3565b8114613af357600080fd5b50565b600081359050613b0581613adf565b92915050565b60008060408385031215613b2257613b21613724565b5b6000613b3085828601613971565b9250506020613b4185828601613af6565b9150509250929050565b600060a0820190508181036000830152613b658188613840565b90508181036020830152613b798187613840565b9050613b886040830186613a46565b613b956060830185613a46565b613ba26080830184613a46565b9695505050505050565b600080fd5b600080fd5b7f4e487b7100000000000000000000000000000000000000000000000000000000600052604160045260246000fd5b613bee8261382f565b810181811067ffffffffffffffff82111715613c0d57613c0c613bb6565b5b80604052505050565b6000613c2061371a565b9050613c2c8282613be5565b919050565b600067ffffffffffffffff821115613c4c57613c4b613bb6565b5b613c558261382f565b9050602081019050919050565b82818337600083830152505050565b6000613c84613c7f84613c31565b613c16565b905082815260208101848484011115613ca057613c9f613bb1565b5b613cab848285613c62565b509392505050565b600082601f830112613cc857613cc7613bac565b5b8135613cd8848260208601613c71565b91505092915050565b60008060008060808587031215613cfb57613cfa613724565b5b6000613d0987828801613971565b9450506020613d1a87828801613971565b9350506040613d2b878288016138bc565b925050606085013567ffffffffffffffff811115613d4c57613d4b613729565b5b613d5887828801613cb3565b91505092959194509250565b600081519050919050565b600082825260208201905092915050565b6000819050602082019050919050565b613d998161389b565b82525050565b600082825260208201905092915050565b6000613dbb826137e9565b613dc58185613d9f565b9350613dd5818560208601613805565b613dde8161382f565b840191505092915050565b600060c083016000830151613e016000860182613d90565b5060208301518482036020860152613e198282613db0565b91505060408301518482036040860152613e338282613db0565b9150506060830151613e486060860182613d90565b506080830151613e5b6080860182613d90565b5060a0830151613e6e60a0860182613d90565b508091505092915050565b6000613e858383613de9565b905092915050565b6000602082019050919050565b6000613ea582613d64565b613eaf8185613d6f565b935083602082028501613ec185613d80565b8060005b85811015613efd5784840389528151613ede8582613e79565b9450613ee983613e8d565b925060208a01995050600181019050613ec5565b50829750879550505050505092915050565b60006020820190508181036000830152613f298184613e9a565b905092915050565b600060a0830160008301518482036000860152613f4e8282613db0565b91505060208301518482036020860152613f688282613db0565b9150506040830151613f7d6040860182613d90565b506060830151613f906060860182613d90565b506080830151613fa36080860182613d90565b508091505092915050565b60006020820190508181036000830152613fc88184613f31565b905092915050565b600060c083016000830151613fe86000860182613d90565b50602083015184820360208601526140008282613db0565b9150506040830151848203604086015261401a8282613db0565b915050606083015161402f6060860182613d90565b5060808301516140426080860182613d90565b5060a083015161405560a0860182613d90565b508091505092915050565b6000602082019050818103600083015261407a8184613fd0565b905092915050565b6000806040838503121561409957614098613724565b5b60006140a785828601613971565b92505060206140b885828601613971565b9150509250929050565b7f4e487b7100000000000000000000000000000000000000000000000000000000600052602260045260246000fd5b6000600282049050600182168061410957607f821691505b60208210810361411c5761411b6140c2565b5b50919050565b7f4552433732313a20617070726f76616c20746f2063757272656e74206f776e6560008201527f7200000000000000000000000000000000000000000000000000000000000000602082015250565b600061417e6021836137f4565b915061418982614122565b604082019050919050565b600060208201905081810360008301526141ad81614171565b9050919050565b7f4552433732313a20617070726f76652063616c6c6572206973206e6f7420746f60008201527f6b656e206f776e6572206f7220617070726f76656420666f7220616c6c000000602082015250565b6000614210603d836137f4565b915061421b826141b4565b604082019050919050565b6000602082019050818103600083015261423f81614203565b9050919050565b7f4552433732313a2063616c6c6572206973206e6f7420746f6b656e206f776e6560008201527f72206f7220617070726f76656400000000000000000000000000000000000000602082015250565b60006142a2602d836137f4565b91506142ad82614246565b604082019050919050565b600060208201905081810360008301526142d181614295565b9050919050565b7f4552433732313a20696e76616c696420746f6b656e2049440000000000000000600082015250565b600061430e6018836137f4565b9150614319826142d8565b602082019050919050565b6000602082019050818103600083015261433d81614301565b9050919050565b7f4552433732313a2061646472657373207a65726f206973206e6f74206120766160008201527f6c6964206f776e65720000000000000000000000000000000000000000000000602082015250565b60006143a06029836137f4565b91506143ab82614344565b604082019050919050565b600060208201905081810360008301526143cf81614393565b9050919050565b600081905092915050565b7f7b226e616d65223a202200000000000000000000000000000000000000000000600082015250565b6000614417600a836143d6565b9150614422826143e1565b600a82019050919050565b6000614438826137e9565b61444281856143d6565b9350614452818560208601613805565b80840191505092915050565b7f202d2d204e465420233a20000000000000000000000000000000000000000000600082015250565b6000614494600b836143d6565b915061449f8261445e565b600b82019050919050565b7f222c20226465736372697074696f6e223a20225468697320697320616e204e4660008201527f542074686174206c6574732070656f706c6520706c617920696e20746865206760208201527f616d65204d657461766572736520536c6179657221222c2022696d616765223a60408201527f2022000000000000000000000000000000000000000000000000000000000000606082015250565b60006145526062836143d6565b915061455d826144aa565b606282019050919050565b7f222c202261747472696275746573223a205b207b202274726169745f7479706560008201527f223a20224865616c746820506f696e7473222c202276616c7565223a20000000602082015250565b60006145c4603d836143d6565b91506145cf82614568565b603d82019050919050565b7f2c20226d61785f76616c7565223a000000000000000000000000000000000000600082015250565b6000614610600e836143d6565b915061461b826145da565b600e82019050919050565b7f7d2c207b202274726169745f74797065223a202241747461636b2044616d616760008201527f65222c202276616c7565223a2000000000000000000000000000000000000000602082015250565b6000614682602d836143d6565b915061468d82614626565b602d82019050919050565b7f7d205d7d00000000000000000000000000000000000000000000000000000000600082015250565b60006146ce6004836143d6565b91506146d982614698565b600482019050919050565b60006146ef8261440a565b91506146fb828961442d565b915061470682614487565b9150614712828861442d565b915061471d82614545565b9150614729828761442d565b9150614734826145b7565b9150614740828661442d565b915061474b82614603565b9150614757828561442d565b915061476282614675565b915061476e828461442d565b9150614779826146c1565b9150819050979650505050505050565b7f646174613a6170706c69636174696f6e2f6a736f6e3b6261736536342c000000600082015250565b60006147bf601d836143d6565b91506147ca82614789565b601d82019050919050565b60006147e0826147b2565b91506147ec828461442d565b915081905092915050565b7f4e487b7100000000000000000000000000000000000000000000000000000000600052601160045260246000fd5b60006148318261389b565b915061483c8361389b565b9250828203905081811115614854576148536147f7565b5b92915050565b600060608201905061486f6000830186613930565b61487c6020830185613a46565b6148896040830184613a46565b949350505050565b7f4e487b7100000000000000000000000000000000000000000000000000000000600052603260045260246000fd5b60008190508160005260206000209050919050565b60006020601f8301049050919050565b600082821b905092915050565b6000600883026149227fffffffffffffffffffffffffffffffffffffffffffffffffffffffffffffffff826148e5565b61492c86836148e5565b95508019841693508086168417925050509392505050565b6000819050919050565b600061496961496461495f8461389b565b614944565b61389b565b9050919050565b6000819050919050565b6149838361494e565b61499761498f82614970565b8484546148f2565b825550505050565b600090565b6149ac61499f565b6149b781848461497a565b505050565b5b818110156149db576149d06000826149a4565b6001810190506149bd565b5050565b601f821115614a20576149f1816148c0565b6149fa846148d5565b81016020851015614a09578190505b614a1d614a15856148d5565b8301826149bc565b50505b505050565b600082821c905092915050565b6000614a4360001984600802614a25565b1980831691505092915050565b6000614a5c8383614a32565b9150826002028217905092915050565b614a75826137e9565b67ffffffffffffffff811115614a8e57614a8d613bb6565b5b614a9882546140f1565b614aa38282856149df565b600060209050601f831160018114614ad65760008415614ac4578287015190505b614ace8582614a50565b865550614b36565b601f198416614ae4866148c0565b60005b82811015614b0c57848901518255600182019150602085019450602081019050614ae7565b86831015614b295784890151614b25601f891682614a32565b8355505b6001600288020188555050505b505050505050565b60006080820190508181036000830152614b588187613840565b90508181036020830152614b6c8186613840565b9050614b7b6040830185613a46565b8181036060830152614b8d8184613840565b905095945050505050565b7f4552433732313a207472616e736665722066726f6d20696e636f72726563742060008201527f6f776e6572000000000000000000000000000000000000000000000000000000602082015250565b6000614bf46025836137f4565b9150614bff82614b98565b604082019050919050565b60006020820190508181036000830152614c2381614be7565b9050919050565b7f4552433732313a207472616e7366657220746f20746865207a65726f2061646460008201527f7265737300000000000000000000000000000000000000000000000000000000602082015250565b6000614c866024836137f4565b9150614c9182614c2a565b604082019050919050565b60006020820190508181036000830152614cb581614c79565b9050919050565b7f4552433732313a20617070726f766520746f2063616c6c657200000000000000600082015250565b6000614cf26019836137f4565b9150614cfd82614cbc565b602082019050919050565b60006020820190508181036000830152614d2181614ce5565b9050919050565b7f4552433732313a207472616e7366657220746f206e6f6e20455243373231526560008201527f63656976657220696d706c656d656e7465720000000000000000000000000000602082015250565b6000614d846032836137f4565b9150614d8f82614d28565b604082019050919050565b60006020820190508181036000830152614db381614d77565b9050919050565b7f4e487b7100000000000000000000000000000000000000000000000000000000600052601260045260246000fd5b6000614df48261389b565b9150614dff8361389b565b9250828201905080821115614e1757614e166147f7565b5b92915050565b6000614e288261389b565b9150614e338361389b565b925082614e4357614e42614dba565b5b828204905092915050565b6000614e598261389b565b9150614e648361389b565b9250828202614e728161389b565b91508282048414831517614e8957614e886147f7565b5b5092915050565b60006080820190508181036000830152614eaa8187613840565b90508181036020830152614ebe8186613840565b9050614ecd6040830185613a46565b614eda6060830184613a46565b95945050505050565b60006060820190508181036000830152614efd8186613840565b90508181036020830152614f118185613840565b90508181036040830152614f258184613840565b9050949350505050565b6000614f3a8261389b565b91507fffffffffffffffffffffffffffffffffffffffffffffffffffffffffffffffff8203614f6c57614f6b6147f7565b5b600182019050919050565b6000819050919050565b614f92614f8d8261389b565b614f77565b82525050565b60008160601b9050919050565b6000614fb082614f98565b9050919050565b6000614fc282614fa5565b9050919050565b614fda614fd58261391e565b614fb7565b82525050565b6000614fec8286614f81565b602082019150614ffc8285614fc9565b60148201915061500c8284614f81565b602082019150819050949350505050565b60006150288261389b565b91506150338361389b565b92508261504357615042614dba565b5b828206905092915050565b600060608201905081810360008301526150688186613840565b9050818103602083015261507c8185613840565b905061508b6040830184613a46565b949350505050565b600060608201905081810360008301526150ad8186613840565b90506150bc6020830185613a46565b6150c96040830184613a46565b949350505050565b600081519050919050565b600082825260208201905092915050565b60006150f8826150d1565b61510281856150dc565b9350615112818560208601613805565b61511b8161382f565b840191505092915050565b600060808201905061513b6000830187613930565b6151486020830186613930565b6151556040830185613a46565b818103606083015261516781846150ed565b905095945050505050565b6000815190506151818161375a565b92915050565b60006020828403121561519d5761519c613724565b5b60006151ab84828501615172565b91505092915050565b7f4552433732313a206d696e7420746f20746865207a65726f2061646472657373600082015250565b60006151ea6020836137f4565b91506151f5826151b4565b602082019050919050565b60006020820190508181036000830152615219816151dd565b9050919050565b7f4552433732313a20746f6b656e20616c7265616479206d696e74656400000000600082015250565b6000615256601c836137f4565b915061526182615220565b602082019050919050565b6000602082019050818103600083015261528581615249565b905091905056fe0a506c617965722077697468206368617261637465722025732061626f757420746f2061747461636b2e20506c61796572206861732025732048502c20616e642025732061747461636b2064616d61676521596f7520646965642120476f206275792061206e657720636861726163746572214142434445464748494a4b4c4d4e4f505152535455565758595a6162636465666768696a6b6c6d6e6f707172737475767778797a303132333435363738392b2f426f7373202573206861732025732048502c20616e642025732061747461636b2064616d616765214d696e746564204e465420772f20746f6b656e496420257320616e6420636861726163746572496e646578202573a2646970667358221220c196cbedd1a696fc4418595c4b391fd0b0bb4a8cf071dd3bfc5cc144a09b3c6664736f6c63430008110033446f6e6520696e697469616c697a696e6720257320772f2048502025732c20696d67202573426f737320257320696e697469616c697a656420776974682025732048502c20696d67202573",
  "linkReferences": {},
  "deployedLinkReferences": {}
}